:020000040800F2
:10000000D807002039360008E9060008EB0600088A
:10001000EF060008F3060008F706000800000000DD
:10002000000000000000000000000000FB060008C7
:10003000FD06000800000000FF0600085F3300080E
:10004000533600085336000853360008533600086C
:10005000533600085336000853360008533600085C
:100060005336000853360008533600088919000833
:1000700095190008A1190008AD190008B919000860
:10008000C5190008D1190008533600085336000876
:10009000533600085336000853360008533600081C
:1000A000533600085336000853360008533600080C
:1000B0005F12000853360008533600085336000814
:1000C00053360008533600085336000853360008EC
:1000D00053360008AD350008533600085336000883
:1000E00053360008533600085336000853360008CC
:1000F000533600085336000853360008DD1900084F
:1001000053360008533600085336000853360008AB
:10011000533600085336000853360008533600089B
:10012000E9190008F3190008FF1900080B1A000864
:10013000171A0008533600085336000853360008D3
:10014000533600085336000853360008533600086B
:10015000231A00082F1A00083B1A0008533600081B
:10016000533600085336000853360008533600084B
:10017000533600085336000853360008533600083B
:10018000533600085336000853360008533600082B
:10019000533600085336000853360008533600081B
:1001A000533600085336000853360008DFF80CD0E9
:1001B00006F00AF800480047AF060008D8070020FC
:1001C00070B504460D461646A9B2A0B2324602F0FA
:1001D00023F870BD2DE9F04100240AE0632C07D01C
:1001E000FC4A32F8141004F114000022FFF7E8FF73
:1001F000641CC82CF2DB00244EE0F64830F81410E2
:100200000246601C32F81000814244D0601C642118
:1002100090FBF1F201FB120000283CD0ED4830F8D1
:1002200014100246601C32F81000814203DA1046B6
:1002300030F8140003E0E749601C31F8100007466D
:10024000E44830F814100246601C32F81000814275
:1002500003DD104630F8140003E0DE49601C31F87D
:10026000100080466FF0010512E0601900280EDBD7
:100270006019C8280BDA3E4607E004F1140148195A
:1002800000223146FFF79CFF761C4645F5DD6D1CCC
:10029000022DEADD00BF641CC72CAEDBBDE8F08197
:1002A0001CB54FF4A06003F0D9F9A82003F08CF836
:1002B0004FF4E13003F01CF903F03BF801F01FF9B3
:1002C00000F0E6FF00F03AFF01F003F801F01CF93E
:1002D0000121202003F059FD8020009003208DF89B
:1002E000040000208DF807006946BB4803F0ACFA13
:1002F00001F07CF90121082003F047FD4FF4805004
:10030000009001208DF804006946B44803F09CFA7F
:100310004FF48051B14803F013FB01F02AFF022093
:1003200001F08FFF002001F0D8FD002404E0002040
:10033000A84921F81400641CC82CF8DB1CBD70B55A
:10034000A74890ED000ADFEDA70A20EE200ADFEDB6
:10035000A60A80EE201ABCEEC10A10EE104A6425EF
:10036000A2480088A2490880A2480078A0B19F480E
:100370000088643041F28831884205DC9B4800885F
:1003800064309A49088017E041F288309749088024
:100390000020984908700FE094480088642805DB25
:1003A0009248008864389149088005E000208F4910
:1003B000088001208F4908708F480068401C8E49D2
:1003C000086008460068A04201D300200860874802
:1003D000008887490988884208D08848007805281D
:1003E00004DA86480078401C844908708448007804
:1003F00030B1012811D002281BD0032831D124E0CC
:100400007A48008800F0E8FF7848008800F0F1FFA3
:100410007648008800F0F9FF23E07448008800F077
:10042000DBFF7248008800F0E4FF002000F0EDFFE1
:1004300017E06E48008800F0CFFF002000F0D9FFE1
:100440006A48008800F0E1FF0BE0002000F0C4FFE4
:100450006648008800F0CDFF6448008800F0D5FFB2
:1004600000BF00BF70BD10B50446012C06D0022CA1
:1004700008D0032C0AD0042C10D10BE001206049D5
:1004800008700BE002205E49087007E003205C4919
:10049000087003E000205A49087000BF00BF002028
:1004A00052490880012053490870002053490870C0
:1004B00000F000FF10BD2DE9F04F2DED048BFFB0D3
:1004C00081464A48008800EE100AB8EE400ADFED87
:1004D0004D0A80EE201AB0EE418A9FED430A28EEC5
:1004E000000ABDEEC00A10EE105A9226AD274FF05A
:1004F000770A3E480088322190FBF1FB5B4642A21E
:100500004FF4FA7102A805F03BFF00204FF6FF718F
:10051000404B02AACDE9001014210A2001F01EFF71
:100520002F48006805F03EFC41EC190B8DED009B57
:1005300039A24FF4FA7102A805F022FF00204FF60D
:10054000FF71344B02AACDE9001028210A2001F0E6
:1005500005FF00204FF6FF71CDE900103248284911
:10056000097850F821202B4B3C210A2001F0F6FE9F
:100570004B462EA24FF4FA7102A805F001FF0020AD
:100580001F21244B02AACDE9001050210A2001F0BE
:10059000E5FEFFF71FFE4FF000086CE0642008FB4B
:1005A00000FB00240DE00BEB04010A4A22F8116065
:1005B0000BF1140108194FF6E0723146FFF700FE07
:1005C000641CAC42EFDB002D41DD642D3FDA344684
:1005D0003BE000002C01002000140240000C02400F
:1005E0000800002000007A440000C84202000020F9
:1005F000040000200600002024000020100000203D
:100600000000002000409C45447574793A20253351
:100610006425250054000020506572696F643A20FB
:10062000252E316673000000140000204144433A37
:1006300020253364252500000BF1140148194FF6DD
:10064000E0722146FFF7BCFD641CBC42F4DD2C4681
:100650000DE00BEB0401234A22F811700BF1140199
:1006600008194FF6E0723946FFF7AAFD641C642CA6
:10067000EFDB08F10108B8F1020F8FDB344606E02A
:100680004FF6E07221465046FFF79AFD641CBC42CB
:10069000F6DD4FF6FF70C823DC227721009013208F
:1006A00001F02BFF7FB0BDEC048BBDE8F08FFFF7AE
:1006B000F7FD16E000F03AFF04462CB12046FFF7A4
:1006C000D2FE0A2002F0E2FEFFF739FE00F0A2FFA0
:1006D000C0F16400C5B22846FFF7EDFE042002F029
:1006E000D5FEE7E72C010020704700BFFEE700BF02
:1006F000FEE700BFFEE700BFFEE7704770477047A8
:100700000CB50020019000908348006840F48030D0
:100710008149086000BF8048006800F40030009004
:100720000198401C0190009818B90198B0F5A04FAD
:10073000F1D17948006800F4003010B10120009038
:1007400001E0002000900098012860D172484030FC
:10075000006840F080507049403108606F48006880
:1007600040F440406D4908606B48083000686A49B1
:10077000083108600846006840F4004008600846F8
:10078000006840F4A05008606548091F0860081F11
:10079000006840F08070091F086000BF5E48006874
:1007A00000F000700028F9D05C48006840F4803008
:1007B0005A49086000BF5948406800F4803000285A
:1007C000F9D05648006840F400305449086000BF32
:1007D0005248406800F400300028F9D040F205701B
:1007E000504908604C480830006820F003004A492E
:1007F000083108600846006840F00200086000BF49
:1008000045480830006800F00C000828F8D10CBDFD
:1008100010B54548006840F47000434908603E4800
:10082000006840F001003C49086000203A49083166
:100830000860394800683D490840374908603C482D
:10084000091D0860081F006820F48020091F086047
:10085000002031490C310860FFF752FF4FF0006073
:1008600031498039086010BD70B500200022022394
:1008700000240221284D08352D6805F00C0020B118
:10088000042806D0082834D107E02A4D2A4E3560C6
:1008900033E02A4D284E35602FE01F4D2D1D2D6869
:1008A000C5F380541C4D2D1D2D6805F03F0154B13A
:1008B000224DB5FBF1F5184E361D3668C6F3881685
:1008C00005FB06F209E01B4DB5FBF1F5124E361D96
:1008D0003668C6F3881605FB06F20F4D2D1D2D68F0
:1008E000C5F301456D1C6B00B2FBF3F5124E35608C
:1008F00003E0104D104E356000BF00BF064D0835B7
:100900002D68C5F303150E4E705D0B4D2D68C54067
:10091000094E356070BD0000003802400070004094
:10092000085A4007003C024088ED00E0FFFFF6FE59
:10093000103000240024F4002800002000127A0067
:100940002C000020016821F00101016000210160FC
:1009500041608160C160016121214161DB498842C0
:1009600004D13D21D94A103A91608CE0D749183121
:10097000884205D14FF47461D44A103A916082E004
:10098000D2493031884205D14FF47411CF4A103A20
:10099000916078E0CD494831884205D14FF07461CB
:1009A000CA4A103A91606EE0C8496031884204D169
:1009B000C749C64A103AD16065E0C44978318842D7
:1009C00004D1C449C14A103AD1605CE0BF499031BA
:1009D000884204D1C049BD4A103AD16053E0BB49B6
:1009E000A831884205D14FF03D51B84A103AD16044
:1009F00049E0BA49884204D13D21B84A083A116019
:100A000041E0B6491831884205D14FF47461B34AC8
:100A1000083A116037E0B1493031884205D14FF4CE
:100A20007411AE4A083A11602DE0AC494831884251
:100A300005D14FF07461A94A083A116023E0A74933
:100A40006031884204D1A249A44A121F11601AE001
:100A5000A2497831884204D19E49A04A121F1160F0
:100A600011E09E499031884204D19B499B4A121F54
:100A7000116008E09949A831884204D14FF03D51F6
:100A8000964A121F1160704710B500220268944BFD
:100A90001A40CC680B6823434C6923438C69234379
:100AA000CC6923430C6A23434C6A23438C6A234357
:100AB0004C6B23438C6B23431A430260426922F040
:100AC0000702D1E90B3423431A4342610B694360A7
:100AD0004B6883608B68C36010BD0021016041607A
:100AE0008160C160016141618161C16101624162F6
:100AF0008162C162016341638163704721B1026811
:100B000042F00102026003E0026822F0010202608A
:100B1000704721B1026842F40042026003E00268BB
:100B200022F400420260704721B1026842F02002C4
:100B3000026003E0026822F0200202607047416018
:100B400070470146486880B2704722B1036843F499
:100B50000023036003E0036823F4002303600161C2
:100B6000704721B1026842F48022026003E002680B
:100B700022F48022026070470AB1016100E0C16086
:100B80007047014600200A6802F400220AB10120E1
:100B900000E000207047014600200A6802F00102D0
:100BA0000AB1012000E000207047014600204A6998
:100BB00002F03800704730B503460A460020002492
:100BC000464DAB4202D24149103901E04349103948
:100BD00002F000550DB14C6800E00C68414D2C400E
:100BE00004EA02050DB1012000E0002030BD0246FC
:100BF0003A4B9A4202D23548103801E03748103853
:100C000001F000531BB1374B0B40C36002E0354B82
:100C10000B408360704710B501F080034BB122B1E7
:100C2000436943F08003436103E0436923F0800399
:100C3000436180290BD02AB1036801F01E042343CD
:100C4000036004E0036801F01E04A343036010BDC9
:100C500070B50246002000240025204EB24202D288
:100C60001A4B103B01E01D4B103B1F4E0E4036B19E
:100C70001E2606EAD124166806EA040502E0566933
:100C800006F0800501F000560EB15C6800E01C68BB
:100C9000144E344004EA010616B10DB1012000E003
:100CA000002070BD02460D4B9A4202D20748103810
:100CB00001E00A48103801F000531BB1094B0B400A
:100CC000C36002E0074B0B40836070471060024036
:100CD0003D000020400F002000003D201064024035
:100CE0003F801CF07D0F7D0F3C0F3C0F10B504467C
:100CF000F648844208D10121801403F0F3F8002162
:100D0000A01403F0EFF83CE0F148844208D101213F
:100D1000001403F0D6F80021201403F0D2F830E0DC
:100D2000EC48844208D10121C01303F0CAF8002125
:100D3000E01303F0C6F824E0E748844208D101211B
:100D4000401403F0CFF80021601403F0CBF818E052
:100D5000E248844209D10121080503F0C3F80021CB
:100D60004FF4801003F0BEF80BE0DD48844208D158
:100D70000121480503F0B6F800214FF4001003F0FC
:100D8000B1F810BD10B50022028802F441520B8860
:100D90004C8823438C882343CC8823430C892343EA
:100DA0004C8923438C892343CC8923431A430280F3
:100DB000838B4FF2FF74234083830B8A038210BD21
:100DC0002DE9F04F002502230024012700220026F0
:100DD000944690469146B0F81CA04FF2400B0AEAA8
:100DE0000B0AA0F81CA04FF0020AA0F820A0858BE7
:100DF000D1F808A0BAF1020F01D100BF6CE0B1F840
:100E000004A0BAF1000F01D1012700E00227DFF8AA
:100E1000D4A2DAF800A00AF4000ABAF1000F09D04F
:100E2000DFF8C0A2DAF800A02AF4000ADFF8B4B2B2
:100E3000CBF800A0DFF8ACA20AF17C0ADAF800A037
:100E4000CAF38818DFF89CA20AF17C0ADAF800A03D
:100E5000CAF30279DFF88CA2AAF1040ADAF800A03A
:100E60000AF03F0CDFF880A2BAFBFCFA0AFB08FA92
:100E7000BAFBF9F6B1F806A0BAF5007F0ED14FEA39
:100E8000162A0AEB8A0A4FEA4A0AD1F808B0BAFBD6
:100E9000FBFA0AF1050A1FFA8AF20FE04FEA471A35
:100EA000B6FBFAFA0AEB8A0A4FEA4A0AD1F808B006
:100EB000BAFBFBFA0AF1050A1FFA8AF24FF00A0A96
:100EC000B2FBFAF202F00104A2EB040ACAF34F03E8
:100ED0004FF6FF7A0AEA0424022B01DBFF2B01DD27
:100EE00002230024B1F806A04AEA040A4AEA030AE7
:100EF000A0F820A0B1F804A0B1F80CB04AEA0B0A9F
:100F0000B1F802B04AEA0B0AB1F800B04AEA0B0A9B
:100F10004AF4006A4AEA05058583BDE8F08F00219E
:100F2000018041808180C180018141818181C181B5
:100F30000721018270470021018041808180C180AA
:100F40000221816000218181704721B1028842F035
:100F50004002028004E002884FF6BF731A4002800C
:100F6000704721B1828B42F48062828304E0828BDD
:100F70004FF6FF331A408283704702884FF2FF73A7
:100F80001A40028002880A4302807047B1F5804F00
:100F900004D1028842F48042028004E002884BF6C9
:100FA000FF731A40028070474FF6FF62914204D0EF
:100FB000028842F48072028004E002884FF6FF63E8
:100FC0001A400280704721B1828842F00402828078
:100FD00004E082884FF6FB731A408280704721B18B
:100FE000828842F01002828004E082884FF6EF731C
:100FF0001A408280704730B500220023848B4FF264
:1010000040052C40848302240484828B0C88B4F530
:10101000007F01D00C8814B94FF4807308E00C886D
:10102000B4F5407F03D00C88B4F5807F00D1002355
:101030008C888D892C434D882C431C4344F40064D8
:101040002243828330BD0146888970478181704781
:1010500021B1028842F40052028004E002884DF679
:10106000FF731A4002807047018841F4805101806B
:10107000704702460020012901D0108B00E0908AC1
:1010800070470146088A70471AB183880B438380F2
:1010900002E083888B438380704730B500240023AF
:1010A0000C110125A540ABB21AB185881D4385807E
:1010B00002E085889D43858030BD0246002013896B
:1010C0000B400BB1012000E00020704700300140D0
:1010D00000380040003C0040003401400050014016
:1010E000005401400838024000127A00CA430281CD
:1010F0007047F0B50246002000240023002501F0CF
:101100000F070126BE40B4B20B1101269E40B3B2B8
:10111000968806EA03051689264016B10DB101200E
:1011200000E00020F0BD10B5002201F00F04012303
:10113000A3409AB2D343038110BD00001CB5012126
:10114000202002F022FE4FF4C060009001208DF8B4
:10115000040000208DF8060003208DF80500012012
:101160008DF807006946214802F06EFB4FF4C0611C
:101170001E4802F0E5FB1CBD70B5044600201C496A
:1011800008801C480088401C1A49088008460088CE
:10119000A0420FDB0120164908804103164802F0E7
:1011A000C2FBC0F10100C5B22A464FF400511248FB
:1011B00002F0CAFB0E480088012815D160000D49D5
:1011C0000988884210DC00200A4908804FF48041D9
:1011D000094802F0A8FBC0F10100C5B22A464FF44D
:1011E0008041054802F0B0FB70BD000000140240D1
:1011F0003E0000203C000020001802407FB505465C
:101200000C460121084602F007FE0295ADF80440A5
:101210000020ADF80C00ADF8060001A94FF08040A9
:1012200003F0DDF901221146900703F079FE1C203E
:101230008DF8000000208DF8010003208DF80200D9
:1012400001208DF80300684602F00DFA4FF4A0600B
:1012500002F004FA0121880703F04AFA7FBD10B5B5
:101260000121880703F073FE18B10121880703F0FC
:101270007FFE0E480088401C0C4908800846008804
:10128000022804DB0020088001200949087010BDF5
:1012900010B5592140F2E730FFF7B0FF10BD044808
:1012A0000078704700200249087070474200002013
:1012B0004000002010B500214FF0804003F07DFB7E
:1012C0000021584803F079FB0021574803F079FBCF
:1012D00010BD00B58BB00121072002F09DFD01215A
:1012E000032002F052FD2020099002208DF82800F2
:1012F00003208DF8290000208DF82A0001208DF8A8
:101300002B0009A9494802F09FFA0122052147480C
:1013100002F025FB4020099009A9444802F094FA04
:1013200002220621414802F01AFB4FF48070099016
:1013300009A93F4802F088FA022208213C4802F03D
:101340000EFB5320ADF8180042F20F7007900020FA
:10135000ADF82000ADF81A0006A94FF0804003F068
:101360003EF906A92F4803F03AF906A92E4803F0E2
:1013700036F96020ADF804000120ADF80600002029
:10138000ADF81000039001A94FF0804003F0BCF9C4
:101390000821C80603F045FB01A9224803F0B4F96F
:1013A0000821204803F03DFB01A91F4803F032FA51
:1013B00008211D4803F04BFB0121880703F098F931
:1013C0000121184803F094F90121174803F090F91E
:1013D000FFF770FF0BB000BD10B5044642F210706D
:1013E000844200DD044621464FF0804003F0E5FAD8
:1013F00010BD10B5044642F21070844200DD044670
:101400002146084803F0D9FA10BD10B5044642F24F
:101410001070844200DD04462146034803F0D1FAEF
:1014200010BD000000040040000800400000024021
:10143000000402401CB500200190012002F0F1FAE6
:101440000121880602F0F9FC0121C80502F09DFC8B
:1014500002F00CFB0190019801284DD101210007F9
:1014600002F0DAFC4FF4404004F0CCF9002002F026
:101470009CFB4FF4805002F0ACFB4FF4A05002F004
:101480009EFB042002234FF4B47208210090000553
:1014900002F02FFB012002F03CFB00BF392002F0DC
:1014A000C7FA0028FAD0012004F0B5F900BF4FF4C4
:1014B000803004F024FA0028F9D0012004F0AEF9BD
:1014C00000BF4FF4003004F01AFA0028F9D00120D0
:1014D00003F02DFE012003F039FE012003F045FE4C
:1014E000052003F021FE022002F04FFB00BF02F0B6
:1014F00056FB0828FBD101E000BFFEE71CBD10B57C
:10150000FFF798FF10BD00001CB50121102002F06C
:101510003CFC3C20009000208DF8040002208DF857
:10152000070069462F4802F08FF91CBD10B52E4800
:10153000007800283CD004212A4802F0E7F901286D
:1015400011D00821274802F0E1F901280BD0102121
:10155000244802F0DBF9012805D02021214802F0BF
:10156000D5F9012824D10A2001F090FF00201E495E
:10157000087004211B4802F0C9F9012800D110BDF0
:101580000821184802F0C2F9012801D10220F6E72B
:101590001021144802F0BAF9012801D10320EEE726
:1015A0002021104802F0B2F9012818D10420E6E702
:1015B00004210C4802F0AAF988B90821094802F070
:1015C000A5F960B91021074802F0A0F938B9202127
:1015D000044802F09BF910B901200349087000206B
:1015E000CDE7000000100240440000201CB501219E
:1015F000202002F0CAFB8020009003208DF8040018
:1016000000208DF8070069462F4802F01DF900F010
:101610007BF81CBD70B52DED028B052000F0ABF8FA
:1016200005462A4800682844284908602848008858
:10163000401C27490880274800684FF47A71B0FBA6
:10164000F1F425480068201A39D021480088002884
:1016500035DD1E4890ED000AF8EE400A1C4800886F
:1016600000EE100AB8EE400A80EE801AB0EE418A11
:10167000DFED1A0A88EE200AF7EE000A70EEC00AC3
:101680009FED171AB6EE000A00EE810ABCEEC00A02
:1016900010EE100A1349087008460078C0F1640182
:1016A000BCEEC80A10EE102A0FA004F059FE00206C
:1016B00006490860064908800748046000BF0948D9
:1016C0000078BDEC028B70BD001402404C0000207D
:1016D00050000020280000204800002000007A452B
:1016E0000000C84252000020414443204156473A7E
:1016F00020256425252028524157204156473A206D
:101700002564290D0A00000000B58BB00121880274
:1017100002F093FB0121880202F0E4FB00214FF468
:10172000806002F0DFFB002007900A9009904FF4E0
:101730008030089007A804F03DF9002001908DF852
:1017400008008DF809000390059001208DF818001D
:1017500001A9144804F0FFF80323012205211148D0
:1017600004F07FF901210F4804F03BF90D4804F023
:10177000D4F90BB000BD10B50446072301220521A2
:10178000084804F06EF9074804F0C7F900BF0221C9
:10179000044804F0E3FA0028F9D0024804F0F9F90B
:1017A00010BD00000022014030B502460B46A64C99
:1017B000A24207D2A549A54C0834141B1825B4FB36
:1017C000F5F006E0A04908399F4C141B1825B4FB1E
:1017D000F5F0042801D3091D001F03F03D049C4DC2
:1017E0002D5CAC400C6030BD10B504463D21204658
:1017F000FFF7DAFF10BD70B502460C46002100234A
:101800000020914DAA4208D2904B083B8F4D0835DD
:10181000551B1826B5FBF6F106E08B4B103B8A4DA5
:10182000551B1826B5FBF6F1042901D31B1D091F12
:101830001868874D6D5CE84000F03D0070BD38B51C
:1018400004463D212046FFF7AFFF7F4884420DD27A
:101850007E480830201A1821B0FBF1F501208DF8E0
:1018600001007C48405D8DF800000CE07648201AAD
:101870001821B0FBF1F501208DF801007548083002
:10188000405D8DF8000001208DF80300E8B28DF86E
:101890000200684601F0E7FE206840F01E0020606C
:1018A000606940F08000606138BD30B504463D217C
:1018B0002046FFF779FF6448844208D26348083025
:1018C000201A1821B0FBF1F062490D5606E05E487F
:1018D000201A1821B0FBF1F05E490D5600BF05F04B
:1018E0001F01012088405C496A0941F8220000BFBD
:1018F000206820F01E002060606900F080006061B8
:1019000030BD7047704770477047704770B50446E8
:101910003D212046FFF76FFF85B23D212046FFF7AE
:1019200043FF05F0200030B1206800F0100010B136
:101930002046FFF7E6FF05F0100030B1206800F008
:10194000080010B12046FFF7DDFF05F0080030B1B8
:10195000206800F0040010B12046FFF7D4FF05F026
:10196000040030B1206800F0020010B12046FFF7FB
:10197000CBFF05F0010030B1606900F0800010B1CC
:101980002046FFF7C2FF70BD10B530480830FFF7A2
:10199000BDFF10BD10B52D482030FFF7B7FF10BDBB
:1019A00010B52A483830FFF7B1FF10BD10B52748F1
:1019B0005030FFF7ABFF10BD10B524486830FFF77B
:1019C000A5FF10BD10B521488030FFF79FFF10BD67
:1019D00010B51E489830FFF799FF10BD10B51B4891
:1019E000B030FFF793FF10BD10B51748FFF78EFF1B
:1019F00010BD10B514481830FFF788FF10BD10B5A2
:101A000011483030FFF782FF10BD10B50E48483046
:101A1000FFF77CFF10BD10B50B486030FFF776FF75
:101A200010BD10B508487830FFF770FF10BD10B535
:101A300005489030FFF76AFF10BD10B50248A83086
:101A4000FFF764FF10BD0000106402400860024010
:101A5000986C00089C6C000880E100E001464FF49F
:101A60000030081AC0F38F2070472DE9F043044678
:101A70000E461546DDE907892046FFF7EFFFC7B29E
:101A8000002243E001209040304000B93CE0B148E2
:101A900030F81700012191400843AE4921F81700A2
:101AA000E0684FEA420C032101FA0CF1884351002F
:101AB00008FA01F10843E06020684FEA420C032174
:101AC00001FA0CF18843510005FA01F10843206046
:101AD000012D01D0022D16D161680120904080B205
:101AE00021EA000003FA02F189B208436060A068AD
:101AF0004FEA420C032101FA0CF18843510009FA24
:101B000001F10843A06000BF501CC2B2102AB9DB2B
:101B1000BDE8F08300B502461046FFF79FFF0121A4
:101B200001FA00F08C49096808438B49086000BD40
:101B30002DE9FC4305460C4616461F46DDE909899A
:101B40000CB9BDE8FC832846FFF7E4FF3B4632466C
:101B500021462846CDE90089FFF787FF00BFF0E75F
:101B60002DE9FC4705460E4617469846DDE90A9AD8
:101B70000EB9BDE8FC872846FFF7CCFF00241AE029
:101B80000120A040304000B914E0E10805F1200038
:101B900050F821006107CA0E0F2191408843610768
:101BA000C90E0AFA01F10843E20805F1200141F8E3
:101BB000220000BF641C102CE2D33B4602223146B7
:101BC0002846CDE90089FFF750FF00BFD1E770B587
:101BD00003460C461846FFF741FFC5B2002214E049
:101BE00001209040204070B1186856000321B14098
:101BF00008431860574830F8150001219140884388
:101C0000544921F81500501CC2B2102AE8DB70BDFF
:101C100030B5024600200BE0012383400B402BB17E
:101C2000136845000324AC40A3431360431CD8B29F
:101C30001028F1DB30BD30B5024600200FE0012353
:101C400083400B404BB1136845000324AC40A343D1
:101C500045000124AC4023431360431CD8B2102834
:101C6000EDDB30BD30B5024600200BE001238340A0
:101C70000B402BB1136845000324AC402343136091
:101C8000431CD8B21028F1DB30BD30B5024600202D
:101C900011E0012383400B4003B90AE013684500BB
:101CA0000324AC40A34345000224AC40234313600B
:101CB00000BF431CD8B21028EBDB30BD70B5034623
:101CC000002011E0012484400C4004B90AE0DC68E3
:101CD00046000325B540AC43450002FA05F52C4308
:101CE000DC6000BF441CE0B21028EBDB70BD41F4A7
:101CF0008032C261C161C261C369C3697047014674
:101D0000002002E0421C90B249100129FADC704721
:101D100000B502461046FFF7A1FE012181400E48A2
:101D2000006888430C49086000BD00B502461046B3
:101D3000FFF794FE074931F8100000BD00B50246D8
:101D40001046FFF78BFE034931F81000C04380B204
:101D500000BD0000BC02002030380240024610885E
:101D600000F0400008B90020704700BF108900F063
:101D700003000028FAD0108900F080000028F5D177
:101D8000918100BF108900F003000028FAD010896B
:101D900000F080000028F5D19089C0B2E4E710B5CA
:101DA00004464FF40051FE4801F0CCFD0421FD48EB
:101DB00001F0C8FD2146FC48FFF7D0FF0421F94897
:101DC00001F0BEFD10BD10B504464FF40051F448BB
:101DD00001F0B6FD0421F34801F0B4FD2146F248BC
:101DE000FFF7BCFF0421EF4801F0AAFD10BD2DE96B
:101DF000F04104460D4616461F462A20FFF7CFFF46
:101E00002012FFF7E0FFE0B2FFF7DDFF3012FFF72F
:101E1000DAFFF0B2FFF7D7FF2B20FFF7C0FF281241
:101E2000FFF7D1FFE8B2FFF7CEFF3812FFF7CBFF85
:101E3000F8B2FFF7C8FFBDE8F0812DE9F04705468D
:101E40000E4617469846DDF8209043463A463146FE
:101E50002846FFF7CCFF2C20FFF7A1FF781B401C82
:101E6000A8EB0601491C00FB01F40421CD4801F058
:101E700069FD4FF40051CA4801F062FD0121CA48D2
:101E800000F07CFFB4F5803F02D34FF6FF7000E016
:101E9000204682B24946C44801F08DF900BFC248CD
:101EA00001F0C0F90028FAD1B4F5803F0BD3601CD3
:101EB00082B24946BC4801F07EF900BFBA4801F041
:101EC000B1F90028FAD10421B64801F039FD00210A
:101ED000B54800F053FFBDE8F08738B50446A0B21E
:101EE0000090B24843880088401E82B20021084614
:101EF000FFF7A3FF38BD01B502E00098401E009037
:101F000000980028F9D108BD10B54FF48051A448BD
:101F100001F018FD44F62060FFF7EDFF4FF480510B
:101F20009F4801F00DFD44F62060FFF7E4FF01201B
:101F3000FFF735FF4CF25030FFF7DDFFCB20FFF706
:101F40002EFF3920FFF73FFF2C20FFF73CFF00203A
:101F5000FFF739FF3420FFF736FF0220FFF733FF8A
:101F6000CF20FFF71CFF0020FFF72DFFC120FFF758
:101F70002AFF3020FFF727FFE820FFF710FF85201A
:101F8000FFF721FF0020FFF71EFF7820FFF71BFF60
:101F9000EA20FFF704FF0020FFF715FF0020FFF7FE
:101FA00012FFED20FFF7FBFE6420FFF70CFF03207C
:101FB000FFF709FF1220FFF706FF8120FFF703FF5D
:101FC000F720FFF7ECFE2020FFF7FDFEC020FFF713
:101FD000E6FE2320FFF7F7FEC120FFF7E0FE10200A
:101FE000FFF7F1FEC520FFF7DAFE3E20FFF7EBFE1C
:101FF0002820FFF7E8FEC720FFF7D1FE8620FFF775
:10200000E2FE3620FFF7CBFE4820FFF7DCFE3A2049
:10201000FFF7C5FE5520FFF7D6FEB120FFF7BFFE44
:102020000020FFF7D0FE1820FFF7CDFEB620FFF707
:10203000B6FE0820FFF7C7FE8220FFF7C4FE272068
:10204000FFF7C1FEF220FFF7AAFE0020FFF7BBFE5C
:102050002A20FFF7A4FE0020FFF7B5FE0020FFF7BF
:10206000B2FE0020FFF7AFFEEF20FFF7ACFE2B2003
:10207000FFF795FE0020FFF7A6FE0020FFF7A3FE66
:102080000120FFF7A0FE3F20FFF79DFE2620FFF76F
:1020900086FE0120FFF797FEE020FFF780FE0F206D
:1020A000FFF791FE3120FFF78EFE2B20FFF78BFE0E
:1020B0000C20FFF788FE0E20FFF785FE0820FFF7B3
:1020C00082FE4E20FFF77FFEF120FFF77CFE3720D7
:1020D000FFF779FE0720FFF776FE1020FFF773FE6B
:1020E0000320FFF770FE0E20FFF76DFE0920FFF7BB
:1020F0006AFE0020FFF767FEE120FFF750FE002098
:10210000FFF761FE0E20FFF75EFE1420FFF75BFE77
:102110000320FFF758FE1120FFF755FE0720FFF7B9
:1021200052FE3120FFF74FFEC120FFF74CFE482042
:10213000FFF749FE0820FFF746FE0F20FFF743FE9A
:102140000C20FFF740FE3120FFF73DFE3620FFF761
:102150003AFE0F20FFF737FE1120FFF720FE14484C
:10216000FFF7C9FE2920FFF71AFE2C20FFF717FE04
:1021700010BD1CB5012000210B460246CDE9001020
:1021800041030748FFF7D4FC012000210B4602461B
:10219000CDE9001004210348FFF7CAFC002009E044
:1021A000000C024000080240005001407000002076
:1021B00040420F00012103460A46CDE90010090301
:1021C000FE48FFF7B5FC0421FD4801F0B9FB0021F2
:1021D000FC4800F091FCFB4800F0FEFEFFF794FE87
:1021E0000020F9490880F9490880F020F849088062
:1021F0004FF4A0704880012008714FF6FF70FFF780
:102200006CFE1CBD10B52920FFF7C9FD10BD10B52F
:102210002820FFF7C4FD10BD70B505460E461446D4
:1022200033462A4631462846FFF7E1FD2C20FFF7CA
:10223000B6FDC4F30720FFF7C6FDE0B2FFF7C3FD0C
:1022400070BD10B504463620FFF7A9FD1CB9582013
:10225000FFF7B9FD10E0012C03D18820FFF7B3FD93
:102260000AE0022C03D12820FFF7ADFD04E0032C87
:1022700002D1E820FFF7A7FD0CB1012C08D1F02016
:10228000D34908804FF4A07048800120087107E00E
:102290004FF4A070CE490880F020488000200871DB
:1022A00010BD2DE9F84F0746884691461C46DDF8DB
:1022B0002CB0C6480780C448A0F800802078C349E5
:1022C00009880844C2490988884208DD6078BE4907
:1022D00009880844BC4908800020BC4908801FFACE
:1022E0008BF000906078B8490988084483B2207860
:1022F000B6490988084482B2B3480188B3480088C7
:10230000FFF79BFD00251EE0A9F12000617800FB8E
:102310000150616831F810A0002610E00AFA06F0BA
:1023200000F4004050B1A84A12882A4491B2A74A4A
:102330001288324490B20A9AFFF76EFF761C20781A
:10234000B042EBD86D1C6078A842DDD820789F4958
:10235000098808449D490880BDE8F88F2DE9FC47AD
:1023600005460E4614461F46DDE90A9AA8469748D8
:1023700005809548068027E020780A2813D17878D0
:10238000401C9149098808448F49088060780D28CD
:1023900004D100208D490880641C02E08B48A0F81D
:1023A0000080641C10E020780D2801D1641C0BE033
:1023B000CDE9009A14F8012B3B46834801888348F5
:1023C0000088FFF76EFF00BF20780028D4D1BDE859
:1023D000FC8770B500244D781D8002E00D782544FF
:1023E000ACB210F8016B002EF8D1148070BD2DE94D
:1023F000FF5F04460D4616461F4675480088A042FA
:1024000003DC73480088401E84B271480088B042E3
:1024100003DC6F480088401E86B26D484088A842A1
:1024200003DC6B484088401E85B269484088B8424A
:1024300003DC67484088401E87B2B44202DD019445
:102440003446019EBD4202DD01953D46019F301B91
:102450000FFA80F9781B0FFA80F8B9F1000F02D05B
:10246000B8F1000F0AD10E9880B23B463246294699
:1024700000902046FFF7E1FCBDE8FF9FB44201DA7F
:10248000012001E04FF0FF300390BD4201DA01204E
:1024900001E04FF0FF300290C14501DD494601E007
:1024A000C8F10001084601EBD07149100FFA81FA1A
:1024B0001FE0294620460E9AFFF7AEFEB44202D135
:1024C000BD4200D116E0D346DA46C9F1000083458B
:1024D00006DDAAEB08000FFA80FA0398204484B2C4
:1024E000C34506DA0AEB09000FFA80FA029828447D
:1024F00085B2DEE700BF00BFBEE72DE9F843054621
:102500000E4617469846089C33463A4631462846BA
:102510000094FFF76CFF43462A4631462846009454
:10252000FFF765FF43463A46314638460094FFF7C9
:102530005EFF43463A46414628460094FFF757FF60
:10254000BDE8F8832DE9F84304460D4616461F46BC
:10255000DDF82090B44202DDA04634464646BD4236
:1025600002DDA8463D4647461FFA89F03B46324603
:10257000294600902046FFF760FC0421104801F036
:10258000DFF9BDE8F8832DE9FF5F05460E4690466A
:10259000C8F101000FFA80F94FF0010A4FEA480034
:1025A00040420FFA80FB0027444606EB080291B236
:1025B000A8B2039AFFF730FE0CE00000000C0240C6
:1025C00000080240005001406E0000206C00002016
:1025D00070000020A6EB080291B2A8B2039AFFF7A0
:1025E0001BFEB1B205EB080290B2039AFFF714FE8E
:1025F000B1B2A5EB080290B2039AFFF70DFE4EE0D0
:10260000B9F1000F09DB601E04B20BF102000FFAF2
:1026100080FB09EB0B000FFA80F9781C07B20AF176
:1026200002000FFA80FA09EB0A000FFA80F932195A
:1026300091B2EA1990B2039AFFF7EEFD321991B206
:10264000EA1B90B2039AFFF7E7FD321B91B2EA1939
:1026500090B2039AFFF7E0FD321B91B2EA1B90B2F1
:10266000039AFFF7D9FDF21991B22A1990B2039A91
:10267000FFF7D2FDF21991B22A1B90B2039AFFF72D
:10268000CBFDF21B91B22A1990B2039AFFF7C4FD59
:10269000F21B91B22A1B90B2039AFFF7BDFDA7422D
:1026A000AEDBBDE8FF9F2DE9FC5F05460E461746F1
:1026B0009946C7F101000FFA80FA4FF0010B78003C
:1026C000404200B201904FF000083C46F21991B22E
:1026D000A8B24A46FFF7A0FDF21B91B2A8B24A4643
:1026E000FFF79AFDB1B2EA1990B24A46FFF794FD9E
:1026F000B1B2EA1B90B24A46FFF78EFDB3B205EBCA
:10270000070C1FFA8CF2B1B2A5EB070C1FFA8CF084
:10271000CDF80090FFF76BFE68E0BAF1000F09DB1F
:10272000601E04B20198801C00B2019001985044D0
:102730000FFA80FA08F101000FFA80F80BF102009D
:102740000FFA80FB0AEB0B000FFA80FA06EB040C81
:102750001FFA8CF305EB080C1FFA8CF206EB040C45
:102760001FFA8CF1A5EB080C1FFA8CF0CDF8009045
:10277000FFF73DFEA6EB040C1FFA8CF3A5EB080C4B
:102780001FFA8CF2A6EB040C1FFA8CF105EB080C77
:102790001FFA8CF0CDF80090FFF729FE06EB080C2D
:1027A0001FFA8CF3A5EB040C1FFA8CF206EB080C55
:1027B0001FFA8CF105EB040C1FFA8CF0CDF8009099
:1027C000FFF715FEA6EB080C1FFA8CF3A5EB040C23
:1027D0001FFA8CF2A6EB080C1FFA8CF105EB040C27
:1027E0001FFA8CF0CDF80090FFF701FEA04594DBB6
:1027F000BDE8FC9F70471CB5044654B90520032171
:1028000000231A46CDE900104FF4E041FE48FFF7DF
:10281000A7F9032C03D10521FC48FFF7EBFF1CBDF2
:102820001CB5044654B90520032100231A46CDE9FE
:1028300000104FF46071F648FFF792F9012C13D1A4
:102840000520032100231A46CDE90010E102F048DB
:10285000FFF786F90520032100231A46CDE9001071
:10286000C021EC48FFF77CF9032C03D10521EA488D
:10287000FFF7C0FF1CBD1CB504464CB90520032161
:1028800000231A46CDE900106421E448FFF768F9F7
:10289000012C0AD10520032100231A46CDE900109E
:1028A0004FF4E041DD48FFF75BF9032C03D105212C
:1028B000DB48FFF79FFF1CBD1CB504464CB9062042
:1028C000032100231A46CDE900103821D548FFF72F
:1028D00047F9012C0AD10620032100231A46CDE92D
:1028E00000104FF4E051D048FFF73AF9032C03D120
:1028F0000621CE48FFF77EFF1CBD1CB50446A4B9D7
:102900000520032100231A46CDE900104FF4806111
:10291000C448FFF725F90520032100231A46CDE915
:1029200000100C21C048FFF71BF9012C0AD105202B
:10293000032100231A46CDE900104FF46041B94845
:10294000FFF70EF9022C09D10520032100231A46B6
:10295000CDE900100D21B648FFF702F9032C03D191
:102960000521B448FFF746FF1CBD1CB504464CB911
:102970000520032100231A46CDE90010E021AE48CE
:10298000FFF7EEF8012C09D10520032100231A4698
:10299000CDE900103821A348FFF7E2F8032C03D15A
:1029A0000521A648FFF726FF1CBD2DE9F04385B0A1
:1029B00004460E4615461F46DDE90C896846FEF7BB
:1029C000AEFA9E4884420BD19D48006840F4805086
:1029D0009B4908603046FFF7C8FF0020ADF80400AF
:1029E000944884420DD19648001F006840F480400E
:1029F0009349091F08603046FFF77FFF0020ADF8BC
:102A000004008A4884420DD18D48001F006840F4BC
:102A100000408B49091F08603046FFF74DFF00203A
:102A2000ADF804007E4884420BD18548006840F42C
:102A30000050834908603046FFF71DFF0020ADF8C5
:102A40000400754884420BD17D48006840F4801032
:102A50007B4908603046FFF7E3FE0020ADF8040034
:102A60006A4884420BD17648006840F400107449EB
:102A700008603046FFF7BFFE0020ADF80400ADF857
:102A80000C700020ADF80000ADF80E90ADF802809B
:102A90004FF40070ADF80A002DB90020ADF8060023
:102AA000ADF8080019E0012D06D10020ADF80600B0
:102AB0000120ADF8080010E0022D06D10220ADF88B
:102AC00006000020ADF8080007E0032D05D1022024
:102AD000ADF806000120ADF80800208820F0400085
:102AE000208069462046FEF74DF9208840F04000DE
:102AF000208005B0BDE8F0837CB504460D464F4804
:102B000084420AD100204FF4827120230246CDE98D
:102B1000001029462046FFF748FF464884420AD164
:102B200000204FF4827120230246CDE9001029468F
:102B30002046FFF73AFF3D4884420AD100204FF477
:102B4000827120230246CDE9001029462046FFF776
:102B50002CFF334884420AD100204FF48271202395
:102B60000246CDE9001029462046FFF71EFF2A48FD
:102B700084420AD100204FF4827120230246CDE91D
:102B8000001029462046FFF710FF204884420AD152
:102B900000204FF4827120230246CDE9001029461F
:102BA0002046FFF702FF7CBD7CB504460D46164665
:102BB000224884420AD100204FF4827120233246F9
:102BC000CDE9001029462046FFF7EFFE1948844260
:102BD0000AD100204FF4827120233246CDE9001043
:102BE00029462046FFF7E1FE104884420AD1002022
:102BF0004FF4827120233246CDE900102946204649
:102C0000FFF7D3FE06481DE00018024000540140C3
:102C100000140240001C024000500140001002401D
:102C2000003401400004024000080240003C004023
:102C30000020024000380040000002400030014007
:102C40004438024084420AD100204FF4827120238C
:102C50003246CDE9001029462046FFF7A6FECB48B4
:102C600084420AD100204FF4827120233246CDE9FC
:102C7000001029462046FFF798FEC54884420AD135
:102C800000204FF4827120233246CDE900102946FE
:102C90002046FFF78AFE7CBD2DE9FC4704468946A5
:102CA00017469846DDE90A56BA48844206D13B46A3
:102CB00042464946CDE90056FFF777FEB6488442C2
:102CC00006D13B4642464946CDE90056FFF76DFE28
:102CD000B248844206D13B4642464946CDE90056B9
:102CE000FFF763FEAE48844206D13B464246494662
:102CF000CDE90056FFF759FEA448844206D13B4671
:102D000042464946CDE90056FFF74FFEA0488442AF
:102D100006D13B4642464946CDE90056FFF745FEFF
:102D2000BDE8FC872DE9FF4104460E461EB9382058
:102D300004B0BDE8F081684600F056FF9548844233
:102D400008D09748844205D09048844202D09048E9
:102D5000844201D1039F00E0029F00250AE0681C25
:102D600001218140B7FBF1F0B04201D8E800DFE774
:102D7000681CC5B2082DF2DB3820D9E7024613885B
:102D8000C3F3C020138823F040031380012904D12A
:102D9000138843F40063138003E0138823F4006373
:102DA0001380138843F040031380704730B50C46FE
:102DB000058805F0400505B930BD00BF058905F05F
:102DC0000305002DFAD0058905F08005002DF5D109
:102DD00000210FE0655C858100BF058905F00305D2
:102DE000002DFAD0058905F08005002DF5D18589E3
:102DF0005554491C9942EDD300BFDDE710B50B4691
:102E0000048804F0400404B910BD00BF048904F034
:102E10000304002CFAD0048904F08004002CF5D1BE
:102E200000210EE05C5C848100BF048904F003048F
:102E3000002CFAD0048904F08004002CF5D1848998
:102E4000491C9142EED300BFDEE730B50C46058841
:102E500005F0400505B930BD00BF058905F0030543
:102E6000002DFAD0058905F08005002DF5D100214F
:102E70000EE0828100BF058905F00305002DFAD020
:102E8000058905F08005002DF5D185896554491C1B
:102E90009942EED300BFDEE730B50C46058805F059
:102EA000400505B930BD00BF058905F00305002DBB
:102EB000FAD0058905F08005002DF5D1002111E03B
:102EC00034F81150858100BF058905F00305002DF8
:102ED000FAD0058905F08005002DF5D1858922F805
:102EE0001150491C9942EBD300BFDBE710B50B46EC
:102EF000048804F0400404B910BD00BF048904F044
:102F00000304002CFAD0048904F08004002CF5D1CD
:102F100000210FE033F81140848100BF048904F0E0
:102F20000304002CFAD0048904F08004002CF5D1AD
:102F30008489491C9142EDD300BFDDE730B50C46D2
:102F4000058805F0400505B930BD00BF058905F0CD
:102F50000305002DFAD0058905F08005002DF5D177
:102F600000210FE0828100BF058905F00305002DD7
:102F7000FAD0058905F08005002DF5D1858924F862
:102F80001150491C9942EDD300BFDDE700500140CC
:102F9000005401400030014000380040003C004037
:102FA000003401400146BF4A914200D1BE48BF4AA9
:102FB000914200D1BE48BF4A914200D1BE48BF4AAB
:102FC000914200D1BE48BF4A914200D1BE48BF4A9B
:102FD000914200D1BE48704770B505462846FFF7BC
:102FE000E1FF0446BB496068884206D3BA480068DE
:102FF00040F48000B849086005E0B748006840F434
:103000000010B5490860B349E068884206D3B24869
:10301000006840F48000B049086005E0AE480068F0
:1030200040F40010AC4908600020AC494861C86118
:10303000086248628862C86208634863886370BD3A
:103040002DE9F04780460D4616461F46DDF82090D4
:103050004046FFF7A7FF0446C4F80890E7602660E3
:1030600065604046FFF7B8FFBDE8F08770B50546DC
:103070002846FFF797FF04466068FDF763FCE068A9
:10308000FDF760FC70BD2DE9F04105460E46174680
:1030900098462846FFF786FF0446E068406820B956
:1030A0006068406808B91EB917B90020BDE8F08112
:1030B0000020A08289490862C86105F10C004860BF
:1030C0000846C0F81080206808604020C8602EB113
:1030D000084686604FF48060886105E004F11000C6
:1030E0007E498860002088613D216068FEF75CFBB6
:1030F0007A496068FDF7C8FC7849A068086000203C
:10310000C8602FB1084687604FF48060886105E091
:1031100004F1100071498860002088613D21E06859
:10312000FEF742FB6D49E068FDF7AEFCE068006821
:1031300040F00100E16808606068006840F001004C
:1031400061680860A88840F00300A8800120ADE70E
:103150002DE9F04105460E4617462846FFF722FFA7
:1031600004466068406810B10020BDE8F081266127
:1031700005F10C0059494860084607610020886144
:10318000206808604020C86000200862C8613D21B6
:103190006068FEF709FB51496068FDF775FC6068DF
:1031A000006840F0010061680860A88840F00200F3
:1031B000A8800120D9E72DE9F04105460E461746C3
:1031C0002846FFF7EFFE04466068406810B1002013
:1031D000BDE8F081A68205F10C0040494860084630
:1031E000076104F11400886000208861206808608D
:1031F0004020C860C00108628010C8613D2160683D
:10320000FEF7D2FA35496068FDF73EFC6068006859
:1032100040F0010061680860A88840F00200A880C2
:103220000120D5E770B504462046FFF7BBFE0546F2
:10323000E868406850B96868406838B9208900F08B
:10324000030018B1208900F0800008B1012070BD92
:103250000020FCE710B504462046FFF7A3FE4068B7
:1032600010BD10B504462046FFF79CFEC06810BD97
:1032700070B505462846FFF795FE04466068FEF7E0
:10328000DEFAE068FEF7DBFA70BD70B50546284649
:10329000FFF788FE04466068FEF707FBE068FEF76C
:1032A00004FB70BD00300140780000200038004071
:1032B00090000020003C0040A800002000340140A5
:1032C000C000002000500140D80000200054014000
:1032D000F00000201064024030380240D402002088
:1032E00010B5002807DA0A07140E324A00F00F035F
:1032F0001B1FD45403E00A07130E2F4A135410BDAA
:1033000010B50446601EB0F1807F01D3012010BDCE
:10331000601E4FF0E02148610F214FF0FF30FFF7B2
:10332000DFFF00204FF0E0218861072008610020C6
:10333000EDE710B5214800684FF47A71B0FBF1F465
:103340002046FFF7DDFF08B100BFFEE70F214FF079
:10335000FF30FFF7C5FF10BD1948006870471948D6
:103360000068401C17490860B0F57A7F07D31448FD
:103370000068401C1249086000201249086070472C
:1033800000B50146FFF7E8FF024600BFFFF7E4FF84
:10339000801A8842FAD300BD10B5084800684FF47F
:1033A0007A71B0FBF1F42046FFF7AAFF08B100BF25
:1033B000FEE710BD18ED00E000E400E0280000206A
:1033C000080100200C01002010B504466FF0040035
:1033D00000F096F9E11704EB5171C1F3C701394AC6
:1033E00011701046007800EB4001C1EBC0104FF6A1
:1033F000FF7101EAC0003449088010BD0146314A1E
:1034000012784A434FF0E0235A6100229A611A462B
:10341000126942F001021A6100BF4FF0E022106908
:1034200000F001021AB100F48032002AF5D04FF00A
:10343000E022126922F001024FF0E0231A6100221B
:103440009A6170470146204A12884A434FF0E023B0
:103450005A6100229A611A46126942F001021A6109
:1034600000BF4FF0E022106900F001021AB100F431
:103470008032002AF5D04FF0E022126922F00102DA
:103480004FF0E0231A6100229A61704770B504463C
:103490004FF4077094FBF0F0C6B24FF4077094FB42
:1034A000F0F100FB114085B205E04FF40770FFF723
:1034B000C9FF701EC6B2002EF7D115B12846FFF71E
:1034C000C1FF70BD100100201201002000BF704735
:1034D00070B504460D46E1B2534800F0C3FE00BF8C
:1034E0008021514800F06EFF0028F9D0204670BDC1
:1034F00010B588B004460121084600F046FC0121C1
:10350000102000F09AFC0121480400F085FC0722FD
:103510000921464800F023FA07220A21434800F017
:103520001EFA4FF4C060069002208DF81C0007229E
:1035300002213E4800F013FA02208DF81D00002001
:103540008DF81E0001208DF81F0006A9374800F0F5
:103550007BF94FF4E13002900020ADF80C00ADF89B
:103560000E00ADF81000ADF814000C20ADF81200FC
:1035700002A92D4800F0C3FD01212B4800F047FEB1
:10358000012240F22551284800F0F7FE25208DF851
:10359000040003208DF805008DF8060001208DF849
:1035A000070001A800F05FF808B010BD10B540F2A8
:1035B00025511D4800F01CFF10B31B4800F056FEBB
:1035C000C4B21B48008800F40040C8B918480088FD
:1035D00000F4804060B10A2C03D000201449088018
:1035E00020E01348008840F400401149088019E0A9
:1035F0000D2C06D10E48008840F480400C4908800C
:1036000010E00B480088C0F30D000A490C5408482C
:103610000088401C0649088008460088C72801DD4C
:103620000020088010BD0000001001400000024092
:103630001801002010030020064880470648004774
:10364000FEE7FEE7FEE7FEE7FEE7FEE7FEE7FEE752
:10365000FEE7FEE711080008AD010008324901430A
:10366000324A1160704770B5002100230F22C478E0
:103670001CB32E4C246804F4E064C4F5E064C4F385
:103680000721C1F10404E3B20A4144789C40E1B24D
:103690008478144021430C07210E254C0578615590
:1036A000047804F01F050124AC4005786D11AD00CD
:1036B00005F1E025C5F8004109E0047804F01F0594
:1036C0000124AC401B4D0678761145F8264070BDAC
:1036D000194A0A400243154B1B1F1A60704739B143
:1036E000124A121D12680243104B1B1D1A6006E09D
:1036F0000E4A121D126882430C4B1B1D1A60704744
:10370000042808D14FF0E021096941F004014FF08D
:10371000E022116107E04FF0E021096921F0040186
:103720004FF0E022116170470000FA050CED00E057
:1037300000E400E080E100E080FFFF1F10B50446D8
:103740009848844208D10121084600F087FB0021F7
:10375000012000F083FB76E09348844208D10121E8
:10376000022000F07BFB0021022000F077FB6AE0E2
:103770008E48844208D10121042000F06FFB002113
:10378000042000F06BFB5EE08948844208D10121EF
:10379000082000F063FB0021082000F05FFB52E0EE
:1037A0008448844208D10121102000F057FB0021F9
:1037B000102000F053FB46E07F48844208D10121ED
:1037C000202000F04BFB0021202000F047FB3AE0D6
:1037D0007A48844208D10121402000F03FFB0021BB
:1037E000402000F03BFB2EE07548844208D10121C7
:1037F000802000F033FB0021802000F02FFB22E02E
:103800007048844208D10121801500F027FB002177
:10381000A01500F023FB16E06B48844208D101217B
:10382000401500F01BFB0021601500F017FB0AE0BB
:103830006648844207D10121001500F00FFB0021EA
:10384000201500F00BFB10BDF0B50A460021002347
:10385000002400BF3DE0012505FA01F3156805EAE3
:1038600003049C4234D105684F000326BE40B54393
:10387000056015794E00B540066835430560157939
:10388000012D02D01579022D16D185684F0003262F
:10389000BE40B543856055794E00B54086683543D6
:1038A0008560456801268E40B54345604568967938
:1038B0008E40B6B235434560C5684F000326BE4012
:1038C000B543C560D5794E00B540C6683543C5607F
:1038D000491C1029BFD3F0BD4FF6FF7101600021D4
:1038E000017141718171C171704708B54FF4803227
:1038F0000092009A0A430092009AC261C161009A44
:10390000C261C2690092C269009208BD02460020ED
:1039100013690B400BB1012000E000207047014605
:10392000086980B270470246002053690B400BB112
:10393000012000E0002070470146486980B27047CE
:1039400001837047418370470AB1018300E04183DE
:1039500070474161704742694A4042617047F0B523
:10396000002300244D07ED0E02FA05F3CE1000F1FE
:10397000200555F826504E07F70E0F26BE40B543DA
:10398000CF1000F1200646F82750CE1000F1200598
:1039900055F8265045EA0304CE1000F1200545F8FD
:1039A0002640F0BD00000240000402400008024032
:1039B000000C0240001002400014024000180240B7
:1039C000001C024000200240002402400028024067
:1039D000F648006840F00100F44908600020F3490F
:1039E00008310860F1480068F1490840EF49086073
:1039F000F048091D0860F048EC4984310860ED4842
:103A00001038091D0860E948006820F48020E74963
:103A100008600020E5490C310860E4498C310860F9
:103A200070470021E14A921C1170114608707047DE
:103A300010B501460022002300204A11012A02D1BC
:103A4000DA4C236808E0022A03D1D84C703423688A
:103A500002E0D64C7434236801F01F020124944024
:103A60001C400CB1012000E0002010BD38B5002042
:103A700000900024002500BF3120FFF7D9FF054644
:103A80000098401C00900098B0F5A04F01D0002D88
:103A9000F2D03120FFF7CCFF08B1012400E0002470
:103AA000204638BD01460020C04A106820F0F800CA
:103AB00040EAC10010607047C049086070470021AB
:103AC000BA4A703211701170012802D004280AD14C
:103AD00004E00121B54A7032117005E00521B34AB6
:103AE0007032117000E000BF00BF7047B449086039
:103AF000704770B5049C41EA82150126C6EB530657
:103B000045EA0645054345EA0465A84E361D35607D
:103B100070BDAA490866704710B5830143EA016386
:103B200043EA0273A14C8434236010BDA349886624
:103B3000704710B5830143EA016343EA02739B4C6B
:103B40008834236010BD9D49086770479B49C8644D
:103B5000704702460020954B0833186820F0EC604F
:103B600042EA01031843914B08331860704702463C
:103B700000208E4B0833186820F0784042EA010399
:103B800018438A4B08331860704701460020874A63
:103B90000832106820F00300084310607047834823
:103BA0000830006800F00C007047014600207F4A92
:103BB0000832106820F0F00008431060704701469A
:103BC00000207A4A0832106820F4E0500843106060
:103BD000704701460020754A0832106820F46040A2
:103BE00040EAC10010607047F0B5002100220024B7
:103BF0000225002602236D4F08373F6807F00C01AD
:103C000021B1042905D0082937D105E06D4F07609F
:103C100036E06D4F076033E0644F3F1D3F68C7F3E8
:103C20008056624F3F1D3F6807F03F036EB1664FFD
:103C3000B7FBF3F7DFF874C10CF1040CDCF800C03B
:103C4000CCF3881C07FB0CF40CE05E4FB7FBF3F7DA
:103C5000DFF858C10CF1040CDCF800C0CCF3881C70
:103C600007FB0CF4514F3F1D3F68C7F301477F1C12
:103C70007D00B4FBF5F7076002E0524F076000BF1C
:103C800000BF4A4F08373F6807F0F00109094F4F5E
:103C90007A5C0768D7404760444F08373F6807F4AD
:103CA000E051890A494F7A5C4768D74087603F4FA7
:103CB00008373F6807F46041490B444F7A5C476816
:103CC000D740C760F0BD002100F44072B2F5407FDC
:103CD0000AD1364A0832116821F4F8113C4A0240F0
:103CE0001143324A08321160304A70321268C0F310
:103CF0000B031A432D4B70331A6070473049443917
:103D0000086070472E4940390860704731490860A3
:103D1000704701460020254A8C32106820F01F00B1
:103D20004A1E1043214A8C32106070470146002021
:103D30001E4A8C32106820F4F8504A1E40EA0220D5
:103D40001A4A8C321060704701460020174A8C32A4
:103D5000106820F4401008431060704701460020AE
:103D6000124A8C32106820F44000084310607047FB
:103D7000014600200D4A8C32106820F44030084380
:103D80001060704714490860704739B1074A3032F3
:103D900012680243054B30331A6006E0034A3032A2
:103DA00012688243014B30331A607047003802407A
:103DB000FFFFF6EA103000240030002000004742E8
:103DC000800E47420024F40000127A001A010020FD
:103DD000FFFCFF0F5C014742E011474229B1934AC3
:103DE00012680243914B1A6004E0904A12688243C1
:103DF0008E4B1A60704739B18C4A121D126802430B
:103E00008A4B1B1D1A6006E0884A121D1268824305
:103E1000864B1B1D1A60704739B1844A0C321268F8
:103E20000243824B0C331A6006E0804A0C3212685F
:103E300082437E4B0C331A60704739B17B4A103293
:103E400012680243794B10331A6006E0774A103249
:103E500012688243754B10331A60704739B1734A48
:103E6000243A12680243714B243B1A6006E06F4A01
:103E7000243A126882436D4B243B1A60704739B173
:103E80006A4A203A12680243684B203B1A6006E0F7
:103E9000664A203A12688243644B203B1A6070479E
:103EA00039B1624A1C3A12680243604B1C3B1A60EB
:103EB00006E05E4A1C3A126882435C4B1C3B1A6067
:103EC000704739B1594A143A12680243574B143BB0
:103ED0001A6006E0554A143A12688243534B143B69
:103EE0001A60704739B1514A103A126802434F4B79
:103EF000103B1A6006E04D4A103A126882434B4B61
:103F0000103B1A60704739B1484A1C3212680243AC
:103F1000464B1C331A6006E0444A1C321268824346
:103F2000424B1C331A60704739B1404A2032126844
:103F300002433E4B20331A6006E03C4A20321268AE
:103F400082433A4B20331A60704739B1374A2432E2
:103F500012680243354B24331A6006E0334A243298
:103F600012688243314B24331A60704739B12F4AAB
:103F70002C32126802432D4B2C331A6006E02B4A78
:103F80002C3212688243294B2C331A60704739B1A6
:103F9000264A303212680243244B30331A6006E05E
:103FA000224A303212688243204B30331A60704705
:103FB000012808D11D493C31096841F008011B4A1C
:103FC0003C32116007E019493C31096821F00801D1
:103FD000164A3C321160704739B1144A273A1278B8
:103FE0000243124B273B1A7006E0104A273A127818
:103FF00082430E4B273B1A7070470C4840300068D4
:1040000040F0807009494031086070470146002047
:10401000064A283A12680A400AB1012000E000204E
:104020007047024926390870704700003438024052
:1040300010B50446FA48844208D101211020FFF748
:1040400051FF00211020FFF74DFF57E0F548844253
:1040500009D101214804FFF734FF00214FF400305B
:10406000FFF72FFF4AE0F048844209D1012188047C
:10407000FFF727FF00214FF48020FFF722FF3DE0EC
:10408000EA48844209D10121C804FFF71AFF002140
:104090004FF40020FFF715FF30E0E548844209D1D6
:1040A00001210805FFF70DFF00214FF48010FFF7F5
:1040B00008FF23E0DF48844208D101212020FFF7D8
:1040C00011FF00212020FFF70DFF17E0DA4884429E
:1040D00009D101218807FFF7F4FE00214FF080404D
:1040E000FFF7EFFE0AE0D548844207D101214005E1
:1040F000FFF7E7FE00216005FFF7E3FE10BD2DE9A5
:10410000FF4705460E460024A14600BFA046B089E1
:1041100000B100BF2C8A24F44054F08804432C8260
:10412000AC8941F20C608443B088318908437189BD
:1041300008430443AC81AC8A24F44074B08904433E
:10414000AC826846FFF750FDB548854202D0B948B9
:10415000854202D1DDF80C9001E0DDF80890A889D5
:1041600000F4004040B109EBC90000EB09103168D0
:104170004900B0FBF1F707E009EBC90000EB0910BB
:1041800031688900B0FBF1F76420B7FBF0F004015F
:104190002009642101FB1078A88900F4004040B197
:1041A000322000EBC800B0FBF1F000F00700044340
:1041B00008E0322000EB08106421B0FBF1F000F0C1
:1041C0000F0004432C81BDE8FF874FF416510160B6
:1041D00000218180C18001810C21418100218181E8
:1041E000704710B502460020108A20F470600B88DA
:1041F0004C8823438C882343CC8823431843108264
:1042000010BD0021018041808180C180704721B1B3
:10421000828942F40052828104E082894DF6FF7364
:104220001A4082817047028B02F47F420283028B24
:104230000A430283704721B1828942F4004282819D
:1042400003E08289C2F30E028281704721B1828A23
:1042500042F40062828204E0828A4FF2FF731A40C5
:1042600082827047C1F308028280704701468888C5
:10427000C0F308007047028A4FF6F0731A400282BA
:10428000028A0A430282704721B1828942F0020207
:10429000828104E082894FF6FD731A408281704763
:1042A00082894FF2FF731A40828182890A43828198
:1042B0007047028A4FF6DF731A400282028A0A436D
:1042C0000282704721B1028A42F48042028204E0F5
:1042D000028A4BF6FF731A4002827047818941F0CF
:1042E00001018181704721B1828A42F008028282F5
:1042F00004E0828A4FF6F7731A4082827047028B7D
:10430000D2B20283028B42EA01220283704721B1BA
:10431000828A42F02002828204E0828A4FF6DF73B2
:104320001A408282704721B1828A42F01002828252
:1043300004E0828A4FF6EF731A4082827047828AC5
:104340004FF6FB731A408282828A0A438282704748
:1043500021B1828A42F00202828204E0828A4FF610
:10436000FD731A40828270471AB1838A0B4383829D
:1043700002E0838A8B4383827047F0B503460024B2
:1043800000260025002040F66A17B94200D100BF80
:104390001846C1F3421401F01F06012707FA06F57B
:1043A000012C01D10C3004E0022C01D1103000E0CE
:1043B00014301AB107682F43076002E00768AF4363
:1043C0000760F0BD02460020B1F5007F00D100BFBC
:1043D00013880B400BB1012000E00020704701F46E
:1043E0000072B2F5007F00D100BFCA43028070475F
:1043F00070B50246002400230025002040F66A160E
:10440000B14200D100BFC1F3421501F01F030126E4
:1044100006FA03F3012D13D19689334017E000000B
:10442000001001400044004000480040004C0040A3
:10443000005000400014014000780040007C004023
:10444000022D02D1168A334001E0968A33400C12C5
:10445000012606FA04F41688344013B10CB1012089
:1044600000E0002070BD10B50022002340F66A1461
:10447000A14200D100BF0A1201249440A3B2DC4340
:10448000048010BD10B50446FE48844208D10121C5
:104490000846FFF727FD00210120FFF723FD9DE0DF
:1044A000B4F1804F08D101210846FFF70AFD002131
:1044B0000120FFF706FD91E0F348844208D1012175
:1044C0000220FFF7FEFC00210220FFF7FAFC85E046
:1044D000EE48844208D101210420FFF7F2FC0021BC
:1044E0000420FFF7EEFC79E0E948844208D101217D
:1044F0000820FFF7E6FC00210820FFF7E2FC6DE052
:10450000E448844208D101211020FFF7DAFC0021A1
:104510001020FFF7D6FC61E0DF48844208D101217A
:104520002020FFF7CEFC00212020FFF7CAFC55E039
:10453000DA48844208D101210220FFF7D3FC002190
:104540000220FFF7CFFC49E0D548844209D1012180
:104550000804FFF7C7FC00214FF48030FFF7C2FCCE
:104560003CE0D048844209D101214804FFF7BAFC5D
:1045700000214FF40030FFF7B5FC2FE0CA48844219
:1045800009D101218804FFF7ADFC00214FF4802000
:10459000FFF7A8FC22E0C548844208D10121402051
:1045A000FFF78FFC00214020FFF78BFC16E0C0488E
:1045B000844208D101218020FFF783FC0021802064
:1045C000FFF77FFC0AE0BB48844207D10121801538
:1045D000FFF777FC0021A015FFF773FC10BD002248
:1045E0000288A84B98420ED0AC4B98420BD0B0F149
:1045F000804F08D0A44B984205D0A44B984202D0DB
:10460000A34B984204D14FF68F731A404B881A433C
:10461000A04B984207D0A04B984204D04FF6FF43DE
:104620001A400B891A4302804B68C3620B880385CA
:10463000944B984202D0994B984201D18B7A0386D1
:104640000123838270474FF0FF31416000210180D8
:1046500001814180817270470185828270470A46DC
:10466000002101884FF68F73194011430180704774
:1046700041627047C16270470146486A704701460F
:10468000088D704721B1028842F00202028004E0E6
:1046900002884FF6FD731A400280704721B10288EC
:1046A00042F00402028004E002884FF6FB731A40D5
:1046B0000280704721B1028842F08002028004E04B
:1046C00002884FF67F731A400280704702884FF6C7
:1046D000F7731A40028002880A43028070470288FA
:1046E0004FF6FF431A40028002880A430280704757
:1046F00021B1028842F00102028004E002884FF6F4
:10470000FE731A400280704770B500240022002317
:10471000058C4FF6FE7635400584028C8388048B29
:104720004FF68F752C40B51E2C400D882C43751EFE
:104730002A408D892A434D882A43524DA84202D0EF
:10474000564DA84213D14FF6F7752A40CD892A431A
:104750004FF6FB752A408D882A434FF6FF652B40A4
:104760004FF6FF552B400D8A2B434D8A2B438380F8
:1047700004838D684563028470BD70B500240022F7
:104780000023058C4FF6EF7635400584028C838834
:10479000048B48F6FF752C404FF6FF452C400D88E2
:1047A0004FF6FF7606EA05252C434FF6DF752A40C3
:1047B0008D8906EA05152A434D8806EA05152A4320
:1047C000304DA84202D0354DA8421DD14FF67F751D
:1047D0002A40CD894FF6FF7606EA05152A434FF6A3
:1047E000BF752A408D8806EA05152A434FF6FF3526
:1047F0002B404FF2FF752B400D8A06EA85052B43AF
:104800004D8A06EA85052B43838004838D68856382
:10481000028470BD70B5002400220023058C4FF681
:10482000FF6635400584028C8388848B4FF68F7534
:104830002C404FF6FC752C400D882C434FF6FF554D
:104840002A408D894FF6FF7606EA05252A434D88D2
:1048500006EA05252A430B4DA84202D00F4DA84277
:1048600038D14FF2FF752A40CD894FF6FF7606EA20
:1048700005252A434FF6FF352A408D8806EA05258F
:104880002A4319E0000001400004004000080040F5
:10489000000C0040001000400014004000040140E3
:1048A0000040014000440140004801400018004021
:1048B000001C0040002000404EF6FF752B404DF6D6
:1048C000FF752B400D8A06EA05152B434D8A06EA33
:1048D00005152B43838084838D68C563028470BD76
:1048E00070B5002200230024058C4EF6FF7635407B
:1048F0000584038C8488828B48F6FF752A404FF626
:10490000FF452A400D884FF6FF7606EA05252A4323
:104910004DF6FF752B408D8906EA05352B434D88F2
:1049200006EA05352B43FE4DA84202D0FD4DA842B4
:1049300008D14BF6FF752C400D8A4FF6FF7606EA3C
:1049400085152C43848082838D680564038470BD43
:10495000002101804180818081608181C18101824B
:104960004182704770B50346002000241846183075
:1049700001258D40ACB21D8CA5431D8409B10829C9
:104980000AD100EB610005684FF68F76354005606F
:104990000568154305600FE00D1FC5F34E0528445B
:1049A000056848F6FF763540056005684FF6FF76E6
:1049B00006EA02263543056070BD41637047816396
:1049C0007047C1637047016470470A460021018B3C
:1049D0004FF68F7319401143018370470A46002137
:1049E000018B48F6FF7319404FF6FF7303EA022369
:1049F0001943018370470A460021818B4FF68F735C
:104A000019401143818370470A460021818B48F683
:104A1000FF7319404FF6FF7303EA022319438183A2
:104A200070470A460021018B4FF6F7731940114376
:104A3000018370470A460021018B4FF2FF73194032
:104A40004FF6FF7303EA02231943018370470A46B6
:104A50000021818B4FF6F773194011438183704712
:104A60000A460021818B4FF2FF7319404FF6FF7306
:104A700003EA02231943818370470A460021018B10
:104A80004FF6FB7319401143018370470A4600211A
:104A9000018B4FF6FF3319404FF6FF7303EA0223F1
:104AA0001943018370470A460021818B4FF6FB733F
:104AB00019401143818370470A460021818B4FF6CC
:104AC000FF3319404FF6FF7303EA02231943818332
:104AD00070470A460021018B4FF67F73194011433E
:104AE000018370470A460021018BC1F30E014FF686
:104AF000FF7303EA02231943018370470A4600212A
:104B0000818B4FF67F7319401143818370470A46AA
:104B10000021818BC1F30E014FF6FF7303EA0223DC
:104B20001943818370470A460021018C4FF6FD73BB
:104B300019401143018470470A460021018C4FF649
:104B4000F77319401143018470470A460021018C14
:104B50004FF6DF7319404FF6FF7303EA0213194350
:104B6000018470470A460021018C4FF67F7319407B
:104B70004FF6FF7303EA02131943018470470A4694
:104B80000021018C4FF6FF5319404FF6FF7303EAE3
:104B900002231943018470470A460021018C4FF219
:104BA000FF7319404FF6FF7303EA02231943018490
:104BB00070470A460021018C4DF6FF7319404FF6ED
:104BC000FF7303EA023319430184704730B50023B1
:104BD00001248C40A3B2048C9C430484048C02FA0C
:104BE00001F5ADB22C43048430BD30B5002304245C
:104BF0008C40A3B2048C9C430484048C02FA01F51B
:104C0000ADB22C43048430BD828B4FF2FF331A4087
:104C10008283828B4FF6FF7303EA01231A43828358
:104C20007047F0B50C461546002100220026078C7F
:104C30004EF6FF7C07EA0C070784818B028C4FF647
:104C4000FF7707EA043640F6FF4739404FF6FF7713
:104C500007EA052739434FF6FF7707EA0337394359
:104C600045F6FF773A4046F480573A438183028401
:104C7000F0BD828B4FF6F3731A408283828B0A4316
:104C800082837047F0B50C461546002100220026AD
:104C9000078C4FF6FF6C07EA0C070784818B028CA8
:104CA0004FF6FF7707EA04264FF60C7739404FF6A8
:104CB000FF7707EA03172F4339434FF2FF573A4074
:104CC00046F480773A4381830284F0BD028B4FF231
:104CD000FF331A400283028B4FF6FF7303EA01236E
:104CE0001A4302837047F0B50C4615460021002296
:104CF0000026078C4FF6EF7C07EA0C070784018B30
:104D0000028C4FF6FF7707EA041640F6FF4739405A
:104D10004FF6FF7707EA033739434FF6FF7703E093
:104D2000000001400004014007EA052739434FF61F
:104D30005F773A4046F010073A4301830284F0BDA2
:104D4000028B4FF6F3731A400283028B0A430283ED
:104D50007047F0B50C46154600210022068C4FF630
:104D6000FE773E400684018B028C4FF60C76314074
:104D70007E1C06EA03162E4331434FF6F576324089
:104D800044F00106324301830284F0BD70B505464C
:104D90000C46208850B92389A28861882846FFF7ED
:104DA000D8FFE1882846FFF7CBFF25E020880428BC
:104DB0000AD12389A28861882846FFF794FFE188F9
:104DC0002846FFF783FF17E0208808280AD12389A7
:104DD000A28861882846FFF755FFE1882846FFF73B
:104DE00048FF09E02389A28861882846FFF719FF58
:104DF000E1882846FFF708FF70BD0021018041804F
:104E0000012181800021C180018170472DE9F0419D
:104E100005460C4600260127608808B9022600E0F6
:104E20000026A088012801D1022700E00127208860
:104E3000A0B92389A28861882846FFF78AFFE18804
:104E40002846FFF77DFF23893A4631462846FFF77B
:104E50004AFFE1882846FFF739FF13E02389A2883B
:104E600061882846FFF73FFFE1882846FFF72EFFBD
:104E700023893A4631462846FFF76BFFE1882846EA
:104E8000FFF75EFFBDE8F0810146486B70470146C1
:104E9000886B70470146C86B70470146086C7047C5
:104EA0000A884B881A438B881A43CB881A430B898C
:104EB0001A434B891A438B891A43A0F84420704740
:104EC0000021018041808180C180018141818181F7
:104ED000704731B1B0F8442042F40042A0F84420B9
:104EE00005E0B0F84420C2F30E02A0F84420704759
:104EF00021B1828842F00402828004E082884FF669
:104F0000FB731A408280704721B1828842F001020F
:104F1000828004E082884FF6FE731A4082807047D8
:104F20001AB183890B43838102E083898B43838198
:104F300070478182704702460020138A0B400BB1F4
:104F4000012000E000207047CA430282704730B55C
:104F50000246002000230024158A05EA01039589F2
:104F600005EA010413B10CB1012000E0002030BDBE
:104F7000CA430282704741EA0203A0F848307047F2
:104F80001AB183890B43838102E083898B43838138
:104F9000704721B1828842F00802828004E0828852
:104FA0004FF6F7731A408280704701894FF6F87206
:104FB0001140018170470A46002101894FF68F7325
:104FC000194011430181704730B504460D4629460A
:104FD0002046FFF7F0FF208940F00700208130BD18
:104FE0002DE9F04104460D4616461F46602D06D1B8
:104FF0003B46012231462046FFF775FE05E03B4661
:10500000012231462046FFF7A4FE29462046FFF73D
:10501000D2FF208940F007002081BDE8F08130B543
:105020000C4600210189C9B24FF6FF7505EA032538
:10503000154325432943018130BD2DE9F041054643
:105040000E4617469846002443463A4631462846BF
:10505000FFF7E5FF2C894FF6F870044044F0070491
:105060004FF68F70044044F070042C81BDE8F0814D
:10507000F0B504460D4616461F463B4632462946C5
:105080002046FFF7CCFF208940F480402081F0BD0E
:1050900082884FF68F731A40828082880A4382800A
:1050A000704702894FF6F8731A40028102890A4359
:1050B0000281704702894FF67F731A40028102898C
:1050C0000A4302817047F0B50C4615461E46002182
:1050D000002200230189028B038C4FF6F8773940B8
:1050E00021434FF6FC473A4040F201173A434FF64E
:1050F000DD773B404FF6FF7707EA06172F433B4328
:10510000018102830384F0BD21B1828842F08002D4
:10511000828004E082884FF67F731A408280704755
:10512000A0F8501070470000FE4A1070704730B170
:10513000FC49096841F48071FA4A116005E0F949B7
:10514000096821F48071F74A1160704730B1F54960
:10515000096841F40071F34A116005E0F1490968FA
:1051600021F40071EF4A1160704730B1ED490968D0
:1051700041F48061EB4A116005E0EA49096821F4D5
:105180008061E84A11607047E648006840F40060BA
:10519000E44908607047E348006840F48050E14902
:1051A00008607047DF481030006800F0004028B108
:1051B000DD48DC49091D0860DC4808607047D948B3
:1051C0001030006840F00040D64910310860704748
:1051D0000920D4490C31096801F48031B1F5803FD0
:1051E00001D1012020E0CF490C31096801F0100104
:1051F00009B1062018E0CB490C31096801F480712F
:1052000009B1022010E0C7490C31096801F0EF0133
:1052100009B1072008E0C3490C31096801F0020117
:1052200009B1082000E00920704708B50920009066
:10523000FFF7CEFF009002E0FFF7CAFF00909DF855
:1052400000000128F8D09DF8000008BD70B50446A4
:105250000A460026092502B909E0012A01D11602F1
:1052600005E0022A01D1160201E04FF44076FFF773
:10527000DCFF0546092D2DD1AA481030006820F426
:105280004070A84910310860084600683043086043
:105290000846006820F0F80008600846006844F0FE
:1052A000020108439F49103108600846006840F435
:1052B00080300860FFF7B9FF05469A481030006853
:1052C00020F002009749103108600846006820F07D
:1052D000F8000860284670BD30B502460025092454
:1052E000FFF7A3FF044602B909E0012A01D1150224
:1052F00005E0022A01D1150201E04FF44075092CA6
:1053000023D188481030006820F44070854910315E
:105310000860084600682843086008460068C9130A
:1053200008438049103108600846006840F4803026
:105330000860FFF77AFF04467A481030006848F2A8
:1053400004018843774910310860204630BD30B5EC
:10535000024600250924FFF768FF044602B909E068
:10536000012A01D1150205E0022A01D1150201E04E
:105370004FF44075092C20D16A481030006820F4A1
:10538000407068491031086008460068284308608A
:105390000846006840F0040008600846006840F4D1
:1053A00080300860FFF741FF04465E481030006817
:1053B00020F004005B4910310860204630BD30B554
:1053C000024600250924FFF730FF044602B909E030
:1053D000012A01D1150205E0022A01D1150201E0DE
:1053E0004FF44075092C20D14E481030006820F44D
:1053F00040704C4910310860084600682843086036
:105400000846006840F4004008600846006840F420
:1054100080300860FFF709FF0446424810300068FA
:1054200020F400403F4910310860204630BD70B57F
:10543000064614461D460922FFF7F7FE0246092AD2
:105440001ED138481030006820F4407035491031C2
:1054500008600846006840F440700860084600682C
:1054600040F00100086034607560FFF7DEFE024620
:105470002C481030006820F001002A4910310860E3
:10548000104670BD30B502460C460925FFF7CDFE2B
:105490000546092D1DD123481030006820F44070C6
:1054A0002049103108600846006840F40070086028
:1054B0000846006840F0010008601460FFF7B5FE80
:1054C000054618481030006820F0010015491031D9
:1054D0000860284630BD30B502460C460925FFF766
:1054E000A4FE0546092D24D10E481030006820F492
:1054F00040700C49103108600846006840F4807024
:1055000008600846006840F0010008601480FFF75A
:105510008CFE054603481030006820F00100014968
:10552000103105E0003C024023016745AB89EFCD17
:105530000860284630BD30B502460C460925FFF705
:1055400074FE0546092D17D19A48006820F4407072
:10555000984908600846006808600846006840F0FE
:10556000010008601470FFF760FE0546914800686E
:1055700020F001008F490860284630BD8D48001D8D
:10558000006800F0010028B18B488A49083908609A
:105590008A48086070478748001D006840F0010095
:1055A0008449091D0860704730B502460C4609253C
:1055B000FFF73BFE0546092D10D13CB17D48801D0B
:1055C000008890437B49891D088007E07948801D49
:1055D000008891B208437749891D088030BD30B5F5
:1055E00002460C460925FFF720FE0546092D10D17D
:1055F0003CB170480A30008890436E490A310880F7
:1056000007E06C480A30008891B2084369490A31C2
:10561000088030BDFF21674AD21D127802F07F0159
:1056200040EA0102634BDB1D1A70704730B5024639
:105630000C460925FFF7F9FD0546092D10D144B1A7
:105640005C48801D008891B208435A49891D088032
:1056500006E05848801D008890435649891D0880FF
:1056600030BD30B502460C460925FFF7DEFD054684
:10567000092D10D144B14F480A30008891B2084337
:105680004C490A31088006E04A480A3000889043B5
:1056900048490A31088030BD10B502460924FFF799
:1056A000C4FD0446092C02D14248401D027010BDC1
:1056B000F0B504460D46FF260927FFF7B6FD07465D
:1056C000092F0BD13B48001D007800F01F0645EA6A
:1056D0000600104320433749091D0870F0BD3549C5
:1056E000091D097821F01001324A121D117011466E
:1056F00009780143117070472E49091D097821F07E
:105700000C012C4A121D11701146097801431170C9
:10571000704700B509222748001D007840F00200BC
:105720002449091D0870FFF780FD0246104600BDA0
:105730002048001D0068C0F3471070471D48801DB9
:10574000008870471B480A30008870471948801D40
:105750000088704717480A300088704700201549B4
:10576000491D0978AA2901D0012000E000207047D6
:105770001048001D007800F00C00704729B10D4A58
:10578000126802430B4B1A6004E00A4A1268824313
:10579000084B1A60704701460020064A121F126823
:1057A0000A400AB1012000E0002070470149091FAA
:1057B00008607047103C02403B2A19087F6E5D4C20
:1057C00010B501210807FEF77CFB00214FF0805047
:1057D000FEF777FB10BD574908627047014600206D
:1057E000554A106820F0E0000843106070475149A6
:1057F000086170474F49A031086070474D49A43196
:1058000008607047014600204B4A106820F4404071
:105810000843106070474749086470474549486429
:10582000704730B14449096841F44021424A11604F
:1058300005E04149096821F440213F4A1160704761
:1058400018B101213B4AD16202E00021394AD162FC
:10585000704718B10121374A916202E00021354AB0
:105860009162704733494862704710B50246002084
:10587000314B186840F60343984310432E4B186091
:105880002E4B1B6843F004032C4C2360012901D1EB
:1058900030BF00E020BF294B1B6823F00403274CD6
:1058A000236010BD10B502460020234B186840F657
:1058B000034398431043204B1860204B1B6843F070
:1058C00004031E4C2360012901D130BF00E020BF3A
:1058D0001A4B1B6823F00403184C236010BD1648B4
:1058E000006840F00200144908601448006840F065
:1058F00004001249086000BF00BF30BF7047014676
:1059000000200D4A52680A400AB1012000E0002040
:105910007047B0F5402F06D00749096841EA800179
:10592000054A116005E00449496841F44021024AF2
:105930005160704700000E420070004010ED00E022
:1059400010B501210802FEF7CDFA00214FF4807056
:10595000FEF7C8FA10BD30B502460020002350689B
:10596000F84C20400D790C6844EA0524204350602F
:105970009068F54C2040D1E903542C438D682C43AA
:105980004D7944EA450420439060D06A20F47000C9
:105990000C7D641EE4B2234340EA0350D06230BD64
:1059A00000210160017141718160C16001610121CB
:1059B000017570470021E54A1168E54A1140D0E9B8
:1059C00000231A4383681A43C3681A431143E14A08
:1059D000C2F8041370470021016041608160C1601A
:1059E000704721B1826842F00102826003E0826860
:1059F00022F00102826070470A4600214168D64BBE
:105A000019401143416070474162826270470A4603
:105A10000021416821F01F0111434160704738B1F6
:105A2000CA49096841F40001CA4AC2F8041306E0F1
:105A3000C649096821F40001C64AC2F80413704738
:105A400038B1C249096841F48001C24AC2F804135E
:105A500006E0BE49096821F48001BE4AC2F8041379
:105A60007047F0B504460D4600200021092D11DDD8
:105A7000E068A5F10A0606EB4607072606FA07F1D5
:105A80008843A5F10A0606EB460603FA06F1084329
:105A9000E0600CE0206905EB4507072606FA07F1F0
:105AA000884305EB450603FA06F108432061072AFF
:105AB0000FDA606B561E06EB86071F2606FA07F103
:105AC0008843561E06EB860605FA06F10843606316
:105AD00022E00D2A0FDA206BD61F06EB86071F2661
